{
  "contractName": "Identity",
  "abi": [
    {
      "constant": false,
      "inputs": [
        {
          "internalType": "uint256",
          "name": "tHash",
          "type": "uint256"
        },
        {
          "internalType": "uint256",
          "name": "ink",
          "type": "uint256"
        },
        {
          "internalType": "uint256",
          "name": "pan",
          "type": "uint256"
        },
        {
          "internalType": "uint256",
          "name": "order",
          "type": "uint256"
        }
      ],
      "name": "set",
      "outputs": [],
      "payable": false,
      "stateMutability": "nonpayable",
      "type": "function"
    },
    {
      "constant": true,
      "inputs": [],
      "name": "get",
      "outputs": [
        {
          "internalType": "uint256",
          "name": "",
          "type": "uint256"
        }
      ],
      "payable": false,
      "stateMutability": "view",
      "type": "function"
    }
  ],
  "bytecode": "0x608060405234801561001057600080fd5b5060fc8061001f6000396000f3fe6080604052348015600f57600080fd5b506004361060325760003560e01c8063606ce3bf1460375780636d4ce63c146080575b600080fd5b607e60048036036080811015604b57600080fd5b8101908080359060200190929190803590602001909291908035906020019092919080359060200190929190505050609c565b005b608660be565b6040518082815260200191505060405180910390f35b8360008190555082600181905550816002819055508060038190555050505050565b6000805490509056fea265627a7a723158207cc17fb2c91cf6f6e798b4f733591ccbc1a853ef6b3291c2df174ade21c8ff0764736f6c63430005100032",
  "source": "// SPDX-License-Identifier: MIT\npragma solidity ^0.5.16;\n\ncontract Identity {\n    uint256 transactionHash;\n    uint256 inkProtocol;\n    uint256 panIdentity;\n    uint256 orderId;\n\n    function set(\n        uint256 tHash,\n        uint256 ink,\n        uint256 pan,\n        uint256 order\n    ) public {\n        transactionHash = tHash;\n        inkProtocol = ink;\n        panIdentity = pan;\n        orderId = order;\n    }\n\n    function get() public view returns (uint256) {\n        return transactionHash;\n    }\n}\n",
  "sourcePath": "/Users/iaps/_workspace/shunya-IdentityContract/contracts/Identity.sol",
  "compiler": {
    "name": "solc",
    "version": "0.5.16+commit.9c3226ce.Emscripten.clang"
  },
  "schemaVersion": "3.3.1",
  "updatedAt": "2021-01-14T03:00:34.473Z",
  "devdoc": {
    "methods": {}
  },
  "userdoc": {
    "methods": {}
  }
}